:100000000C945C000C9482000C9482000C9482008E
:100010000C9482000C9482000C9482000C94820058
:100020000C9482000C9482000C9482000C94820048
:100030000C9482000C9482000C9482000C94820038
:100040000C94B5020C9482000C9497040C948200DA
:100050000C9482000C9482000C9482000C94820018
:100060000C9482000C948200E801B40200000007A6
:100070000002010000030406000000000000000070
:10008000010204081020408001020408102001022F
:1000900004081020040404040404040402020202FC
:1000A00002020303030303030000232629000025A3
:1000B000282B000024272A0011241FBECFEFD4E0F4
:1000C000DEBFCDBF11E0A0E0B1E0E6E2FCE002C09F
:1000D00005900D92A831B107D9F711E0A8E1B1E080
:1000E00001C01D92A53AB107E1F710E0CCE6D0E0DF
:1000F00004C02297FE010E940F06C836D107C9F737
:100100000C94CF010C9400000F931F938C01FC0101
:10011000718360835383428360E080810E946B031C
:1001200061E0F80182810E946B031F910F91089595
:100130000F931F938C01FC0171836083538342836F
:1001400060E080810E946B0361E0F80182810E947F
:100150006B031F910F9108951F93CF93DF939B0122
:10016000EA01CB0180589F4FFC0114912C563F4F60
:10017000F9018491A0E0B0E0482F552721C09A01F1
:1001800028553F4FF9018491E82FFF278081612F87
:100190007727992786239723892B39F08081992700
:1001A00086239723892B59F0F9CFF9018491E82F01
:1001B000FF278081992786239723892BB1F31196F6
:1001C000AC17BD07E4F2DF91CF911F9108959F9284
:1001D000AF92BF92CF92DF92EF92FF920F931F9355
:1001E000CF93DF937C01962EA42EB22E81E0C82EF1
:1001F000D12C3FC0F7016081718141E050E0C7011F
:100200000E94AC00092D1127CC19DD0902C01595FB
:100210000795CA95E2F701701070602FF70182818F
:100220000E94D20380E293E00E94140360E0F70191
:1002300082810E94D203BB20C9F4F70160817181E1
:1002400041E050E0C7010E94AC0060E0002309F4E7
:1002500061E0F70182810E94D20380E293E00E9474
:10026000140360E0F70182810E94D2030894C11C4C
:10027000D11CCA2DDD27CC15DD050CF0BBCFDF91DD
:10028000CF911F910F91FF90EF90DF90CF90BF9093
:10029000AF909F900895CF92DF92EF92FF920F93CD
:1002A0001F93CF93DF93EC01C62ED42E790100E08B
:1002B00010E014C021E044E06EE0CE010E94E700AF
:1002C00020E044E06C2DCE010E94E70020E045E0F4
:1002D0006D2DCE010E94E7000F5F1F4F0E151F0509
:1002E0004CF3DF91CF911F910F91FF90EF90DF9032
:1002F000CF90089581E090E0089540E855E260E0F5
:1003000070E08CE191E00E94F10123E030E045E0F3
:1003100066E088E191E00E944B010895EF92FF9220
:100320000F931F938CE1E82E81E0F82E60E071E0DE
:10033000C7010E94240208E111E023E030E045E01B
:1003400066E0C8010E944B0123E030E047E06EE028
:10035000C8010E944B0164EF71E080E090E00E94D0
:10036000F2026BE071E0C7010E94240223E030E05A
:1003700047E066E0C8010E944B0123E030E045E021
:100380006EE0C8010E944B0164EF71E080E090E0F4
:100390000E94F2021F910F91FF90EF900895CFEF0E
:1003A000D4E0DEBFCDBF0E9421030E947D010E94E8
:1003B0008E01FDCF019759F46F5F7F4F41F443E009
:1003C00050E062E070E088E191E00E9498000895BA
:1003D0006FEF7FEF81E090E00E94DA0108950895C9
:1003E0000895CB01BA010E941D0408950E945E0485
:1003F000992708950E946F0408950E948E0408951D
:10040000862F0E94D5040895CB010E94DC04089534
:10041000862F0E94D50408950F931F938C016DE0E1
:100420000E9400026AE0C8010E9400021F910F9121
:1004300008950F931F938C010E940002C8010E942F
:100440000C021F910F9108950F931F938C010E942E
:100450000402C8010E940C021F910F9108950F938E
:100460001F938C010E940802C8010E940C021F9178
:100470000F910895CB01BA013327442755270E94D5
:10048000E90408952AE00E943A0208950F931F9309
:100490008C010E944202C8010E940C021F910F9120
:1004A0000895AB01662777270E9442020895EF92D4
:1004B000FF920F931F93CF93DF93EC017A018B018F
:1004C00077FF0BC06DE20E94000210950095F0943A
:1004D000E094E11CF11C011D111D2AE0B801A701E7
:1004E000CE010E943A02DF91CF911F910F91FF90B0
:1004F000EF9008950F931F938C010E945702C8013B
:100500000E940C021F910F9108952115310521F4CD
:10051000642F0E94000208952A30310519F40E94C8
:10052000570208950E943A0208950F931F938C0179
:100530000E948502C8010E940C021F910F9108952C
:10054000AB01662757FD6095762F0E9457020895EC
:100550000F931F938C010E94A002C8010E940C02FD
:100560001F910F910895089508951F920F920FB64D
:100570000F9211248F939F93AF93BF93809121018A
:1005800090912201A0912301B09124010196A11D17
:10059000B11D8093210190932201A0932301B09378
:1005A0002401BF91AF919F918F910F900FBE0F903B
:1005B0001F90189560912101709122018091230173
:1005C0009091240127E0660F771F881F991F2A95B5
:1005D000D1F72DE730E040E050E00E94BC05CA01B1
:1005E000B9010895AF92BF92CF92DF92EF92FF923E
:1005F0000F931F935B016C010E94DA027B018C0157
:100600000E94DA026E197F09800B910B6A157B0537
:100610008C059D05A8F31F910F91FF90EF90DF903F
:10062000CF90BF90AF900895019751F0880F991F18
:10063000880F991F02972FB7F8940197F1F72FBFF2
:1006400008957894109221011092220110922301B2
:100650001092240184B5826084BD84B5816084BD1C
:1006600085B5826085BD85B5816085BDEEE6F0E02B
:10067000808181608083E1E8F0E080818260808316
:10068000808181608083E0E8F0E080818160808308
:10069000E1EBF0E0808184608083E0EBF0E080813A
:1006A00081608083ECE7F0E080818F7780838081B8
:1006B00080648083EAE7F0E08081846080838081C9
:1006C0008260808380818160808380818068808374
:1006D0001092C1000895282F3327C90180589F4FD9
:1006E000FC0194912C563F4FF9018491882381F0AD
:1006F000E82FFF27EE54FF4FE491FF27662329F4EC
:10070000808190958923808308958081892B8083BF
:100710000895482F5527CA0184599F4FFC01249101
:10072000CA0180589F4FFC0194914C565F4FFA01CB
:1007300034913323A1F1222331F1233021F480912C
:1007400080008F7705C0243031F4809180008F7D48
:100750008093800018C0213019F484B58F7704C0CD
:10076000223021F484B58F7D84BD0DC0263021F464
:100770008091B0008F7705C0273029F48091B000B8
:100780008F7D8093B000E32FFF27E855FF4FE49162
:10079000FF278081892319F081E090E0089580E0AF
:1007A00090E00895482F5527CA0184599F4FFC01B6
:1007B0002491CA0180589F4FFC0194914C565F4F81
:1007C000FA0134913323C1F1222331F1233021F492
:1007D000809180008F7705C0243031F480918000B3
:1007E0008F7D8093800018C0213019F484B58F77F5
:1007F00004C0223021F484B58F7D84BD0DC0263025
:1008000021F48091B0008F7705C0273029F48091C2
:10081000B0008F7D8093B000E32FFF27E355FF4F9B
:10082000E491FF27662329F48081909589238083B2
:1008300008958081892B80830895EF92FF920F9312
:100840001F937B018C0122E030E040E050E00E94E9
:10085000DE05205C3D4B404F5F4FCA01B901A80146
:1008600097010E94DE052150304040405040BB2798
:1008700057FDBA95A52F942F832F2F5F3F4F4F4FD2
:100880005F4F8093C50021502093C400E1ECF0E05D
:10089000808180618083808188608083808180689E
:1008A00080831F910F91FF90EF900895982F809172
:1008B000C00085FFFCCF9093C600089580911F0172
:1008C0009091200120911D0130911E01821B930BFC
:1008D00080589F4F60E870E00E94A90508954091FC
:1008E0001D0150911E0180911F01909120018417DC
:1008F000950719F48FEF9FEF0895FA01EB5DFE4F16
:100900002081CA01019660E870E00E94A9059093D9
:100910001E0180931D01822F9927089580911D014A
:1009200090911E019093200180931F0108951F92C2
:100930000F920FB60F9211242F933F934F935F9313
:100940006F937F938F939F93AF93BF93EF93FF9397
:100950004091C600E0911F01F0912001CF01019666
:1009600060E870E00E94A9059C0180911D019091B2
:100970001E012817390739F0EB5DFE4F4083309395
:10098000200120931F01FF91EF91BF91AF919F91A3
:100990008F917F916F915F914F913F912F910F9028
:1009A0000FBE0F901F90189508950E945604089549
:1009B0008AE00E94D5040895CF93DF93EC0103C031
:1009C00021960E94D50488818823D1F7DF91CF91A9
:1009D00008952F923F924F925F926F927F928F92E3
:1009E0009F92AF92BF92CF92DF92EF92FF920F93BE
:1009F0001F93CF93DF93CDB7DEB7A0970FB6F894D0
:100A0000DEBF0FBECDBF6B017C0119012A0161154C
:100A100071058105910521F480E30E94D5044BC046
:100A20006624772443015E010894A11CB11C850152
:100A3000060D171DC701B601A20191010E94BC0558
:100A4000F80160830894611C711C811C911CC70112
:100A5000B601A20191010E94BC0569017A0121152C
:100A600031054105510519F773010894E108F108B2
:100A7000EA0CFB1CAA24BB24650111C0F70180818C
:100A80008A3010F4805D01C0895C0E94D50408940E
:100A9000A108B108C108D1080894E108F108882725
:100AA0009927DC0186199709A809B909A816B9067A
:100AB000CA06DB0619F7A0960FB6F894DEBF0FBE84
:100AC000CDBFDF91CF911F910F91FF90EF90DF90FD
:100AD000CF90BF90AF909F908F907F906F905F90DE
:100AE0004F903F902F900895EF92FF920F931F9396
:100AF0007B018C0197FF0BC08DE20E94D5041095FD
:100B00000095F094E094E11CF11C011D111D2AE0F8
:100B100030E040E050E0C801B7010E94E9041F91B5
:100B20000F91FF90EF90089520E130E040E050E019
:100B30000E94E904089528E030E040E050E00E947F
:100B4000E904089522E030E040E050E00E94E9042A
:100B5000089597FB092E07260AD077FD04D049D0C7
:100B600006D000201AF4709561957F4F0895F6F72E
:100B7000909581959F4F0895A1E21A2EAA1BBB1B49
:100B8000FD010DC0AA1FBB1FEE1FFF1FA217B30759
:100B9000E407F50720F0A21BB30BE40BF50B661F6F
:100BA000771F881F991F1A9469F760957095809533
:100BB00090959B01AC01BD01CF01089597FB092ED3
:100BC00005260ED057FD04D0D7DF0AD0001C38F41C
:100BD00050954095309521953F4F4F4F5F4F089569
:100BE000F6F790958095709561957F4F8F4F9F4F49
:100BF0000895AA1BBB1B51E107C0AA1FBB1FA61764
:100C0000B70710F0A61BB70B881F991F5A95A9F7B5
:100C100080959095BC01CD010895EE0FFF1F0590C2
:060C2000F491E02D09949F
:100C26004C69676874732075703A004C696768741C
:080C36007320646F776E3A0031
:00000001FF
